:020000040000FA
:020000000528D1
:040002000034003492
:06000A0083168801870146
:1000100083120D20061C35281C28870188015420D6
:100020005420383042200E30422006304220013029
:10003000422080304220080047304B2041304B2086
:1000400053304B20C030422044304B2045304B20B1
:1000500054304B2045304B2043304B2054304B2004
:1000600045304B2044304B2009284E304B204F3038
:100070004B20C030422047304B2041304B20533082
:100080004B20092887005420081254208816542039
:10009000881254200800870054200816542088161F
:1000A00054208812542008000A30A100A00B5628C2
:0600B000A10B5628080018
:02400E00313F40
:00000001FF
